{
  "address": "0x3eAEA181d5CC53D53cDae06e96f29A6705C52553",
  "abi": [
    {
      "inputs": [
        {
          "internalType": "uint256",
          "name": "entranceFee",
          "type": "uint256"
        },
        {
          "internalType": "uint256",
          "name": "interval",
          "type": "uint256"
        },
        {
          "internalType": "address",
          "name": "vrfCoordinatorV2",
          "type": "address"
        },
        {
          "internalType": "bytes32",
          "name": "gasLane",
          "type": "bytes32"
        },
        {
          "internalType": "uint64",
          "name": "subscriptionId",
          "type": "uint64"
        },
        {
          "internalType": "uint32",
          "name": "callBackGasLimit",
          "type": "uint32"
        }
      ],
      "stateMutability": "nonpayable",
      "type": "constructor"
    },
    {
      "inputs": [
        {
          "internalType": "address",
          "name": "have",
          "type": "address"
        },
        {
          "internalType": "address",
          "name": "want",
          "type": "address"
        }
      ],
      "name": "OnlyCoordinatorCanFulfill",
      "type": "error"
    },
    {
      "inputs": [],
      "name": "Raffle_TransferFailed",
      "type": "error"
    },
    {
      "inputs": [],
      "name": "Raffle_UpKeepNeeded",
      "type": "error"
    },
    {
      "inputs": [],
      "name": "Raffle__NotOpen",
      "type": "error"
    },
    {
      "inputs": [],
      "name": "Raffle__SendMoreToEnterRaffle",
      "type": "error"
    },
    {
      "anonymous": false,
      "inputs": [
        {
          "indexed": true,
          "internalType": "address",
          "name": "player",
          "type": "address"
        }
      ],
      "name": "RaffleEnter",
      "type": "event"
    },
    {
      "anonymous": false,
      "inputs": [
        {
          "indexed": true,
          "internalType": "uint256",
          "name": "requestId",
          "type": "uint256"
        }
      ],
      "name": "RequestRaffleWinner",
      "type": "event"
    },
    {
      "anonymous": false,
      "inputs": [
        {
          "indexed": true,
          "internalType": "address",
          "name": "winner",
          "type": "address"
        }
      ],
      "name": "WinnerPicked",
      "type": "event"
    },
    {
      "inputs": [],
      "name": "NUM_WORDS",
      "outputs": [
        {
          "internalType": "uint32",
          "name": "",
          "type": "uint32"
        }
      ],
      "stateMutability": "view",
      "type": "function"
    },
    {
      "inputs": [],
      "name": "REQUEST_CONFIRMATIONS",
      "outputs": [
        {
          "internalType": "uint16",
          "name": "",
          "type": "uint16"
        }
      ],
      "stateMutability": "view",
      "type": "function"
    },
    {
      "inputs": [
        {
          "internalType": "bytes",
          "name": "",
          "type": "bytes"
        }
      ],
      "name": "checkUpKeep",
      "outputs": [
        {
          "internalType": "bool",
          "name": "upKeepNeeded",
          "type": "bool"
        },
        {
          "internalType": "bytes",
          "name": "",
          "type": "bytes"
        }
      ],
      "stateMutability": "view",
      "type": "function"
    },
    {
      "inputs": [],
      "name": "enterRaffle",
      "outputs": [],
      "stateMutability": "payable",
      "type": "function"
    },
    {
      "inputs": [],
      "name": "i_entranceFee",
      "outputs": [
        {
          "internalType": "uint256",
          "name": "",
          "type": "uint256"
        }
      ],
      "stateMutability": "view",
      "type": "function"
    },
    {
      "inputs": [],
      "name": "i_gasLane",
      "outputs": [
        {
          "internalType": "bytes32",
          "name": "",
          "type": "bytes32"
        }
      ],
      "stateMutability": "view",
      "type": "function"
    },
    {
      "inputs": [],
      "name": "i_interval",
      "outputs": [
        {
          "internalType": "uint256",
          "name": "",
          "type": "uint256"
        }
      ],
      "stateMutability": "view",
      "type": "function"
    },
    {
      "inputs": [],
      "name": "i_subscriptionId",
      "outputs": [
        {
          "internalType": "uint64",
          "name": "",
          "type": "uint64"
        }
      ],
      "stateMutability": "view",
      "type": "function"
    },
    {
      "inputs": [],
      "name": "i_vrfCoordinator",
      "outputs": [
        {
          "internalType": "contract VRFCoordinatorV2Interface",
          "name": "",
          "type": "address"
        }
      ],
      "stateMutability": "view",
      "type": "function"
    },
    {
      "inputs": [
        {
          "internalType": "bytes",
          "name": "",
          "type": "bytes"
        }
      ],
      "name": "performUpKeep",
      "outputs": [],
      "stateMutability": "nonpayable",
      "type": "function"
    },
    {
      "inputs": [
        {
          "internalType": "uint256",
          "name": "requestId",
          "type": "uint256"
        },
        {
          "internalType": "uint256[]",
          "name": "randomWords",
          "type": "uint256[]"
        }
      ],
      "name": "rawFulfillRandomWords",
      "outputs": [],
      "stateMutability": "nonpayable",
      "type": "function"
    },
    {
      "inputs": [],
      "name": "s_lastTimeStamp",
      "outputs": [
        {
          "internalType": "uint256",
          "name": "",
          "type": "uint256"
        }
      ],
      "stateMutability": "view",
      "type": "function"
    },
    {
      "inputs": [
        {
          "internalType": "uint256",
          "name": "",
          "type": "uint256"
        }
      ],
      "name": "s_players",
      "outputs": [
        {
          "internalType": "address payable",
          "name": "",
          "type": "address"
        }
      ],
      "stateMutability": "view",
      "type": "function"
    },
    {
      "inputs": [],
      "name": "s_raffleState",
      "outputs": [
        {
          "internalType": "enum Raffle.RaffleState",
          "name": "",
          "type": "uint8"
        }
      ],
      "stateMutability": "view",
      "type": "function"
    },
    {
      "inputs": [],
      "name": "s_recentWinner",
      "outputs": [
        {
          "internalType": "address",
          "name": "",
          "type": "address"
        }
      ],
      "stateMutability": "view",
      "type": "function"
    }
  ],
  "transactionHash": "0x5def6bea6594c52be15b5ad48bd4bfacdfa76140b3b9fc137ca587792088aba1",
  "args": [
    "100000000000000000",
    "300",
    "0x6168499c0cFfCaCD319c818142124B7A15E857ab",
    "0xd89b2bf150e3b9e13446986e571fb9cab24b13cea0a43ea20a6049a85cc807cc",
    "3858",
    "500000"
  ],
  "numDeployments": 1,
  "solcInputHash": "f8dcfb4c72d53573502107887714ddf0",
  "bytecode": "0x6101006040523480156200001257600080fd5b50604051620018ef380380620018ef83398181016040528101906200003891906200018f565b838073ffffffffffffffffffffffffffffffffffffffff1660808173ffffffffffffffffffffffffffffffffffffffff1660601b81525050508560a081815250508460c08181525050426002819055508373ffffffffffffffffffffffffffffffffffffffff1660e08173ffffffffffffffffffffffffffffffffffffffff1660601b815250508260038190555081600460006101000a81548167ffffffffffffffff021916908367ffffffffffffffff16021790555080600460086101000a81548163ffffffff021916908363ffffffff1602179055505050505050506200031e565b6000815190506200012d816200029c565b92915050565b6000815190506200014481620002b6565b92915050565b6000815190506200015b81620002d0565b92915050565b6000815190506200017281620002ea565b92915050565b600081519050620001898162000304565b92915050565b60008060008060008060c08789031215620001af57620001ae62000297565b5b6000620001bf89828a016200014a565b9650506020620001d289828a016200014a565b9550506040620001e589828a016200011c565b9450506060620001f889828a0162000133565b93505060806200020b89828a0162000178565b92505060a06200021e89828a0162000161565b9150509295509295509295565b6000620002388262000249565b9050919050565b6000819050919050565b600073ffffffffffffffffffffffffffffffffffffffff82169050919050565b6000819050919050565b600063ffffffff82169050919050565b600067ffffffffffffffff82169050919050565b600080fd5b620002a7816200022b565b8114620002b357600080fd5b50565b620002c1816200023f565b8114620002cd57600080fd5b50565b620002db8162000269565b8114620002e757600080fd5b50565b620002f58162000273565b81146200030157600080fd5b50565b6200030f8162000283565b81146200031b57600080fd5b50565b60805160601c60a05160c05160e05160601c6115756200037a6000396000818161075101526108f901526000818161060101526106ad015260008181610434015261086a01526000818161037401526103c801526115756000f3fe6080604052600436106100e85760003560e01c80636c7c8f171161008a5780638e879c8a116100595780638e879c8a146102b4578063ae771f6b146102df578063aebc45501461031c578063cc45483f14610347576100e8565b80636c7c8f171461020a57806372cf6e34146102335780637ea3e6c11461025e5780638638b0c614610289576100e8565b8063470cdf97116100c6578063470cdf971461014b5780635e6c102e1461017657806367f082b0146101b45780636919207d146101df576100e8565b80631fe543e3146100ed5780632cfcc539146101165780633485404314610120575b600080fd5b3480156100f957600080fd5b50610114600480360381019061010f9190610e83565b610372565b005b61011e610432565b005b34801561012c57600080fd5b5061013561059f565b6040516101429190611134565b60405180910390f35b34801561015757600080fd5b506101606105a5565b60405161016d919061116a565b60405180910390f35b34801561018257600080fd5b5061019d60048036038101906101989190610de0565b6105bf565b6040516101ab929190611045565b60405180910390f35b3480156101c057600080fd5b506101c96106a6565b6040516101d69190611119565b60405180910390f35b3480156101eb57600080fd5b506101f46106ab565b6040516102019190611134565b60405180910390f35b34801561021657600080fd5b50610231600480360381019061022c9190610d93565b6106cf565b005b34801561023f57600080fd5b50610248610863565b604051610255919061114f565b60405180910390f35b34801561026a57600080fd5b50610273610868565b6040516102809190611134565b60405180910390f35b34801561029557600080fd5b5061029e61088c565b6040516102ab9190610fe6565b60405180910390f35b3480156102c057600080fd5b506102c96108b2565b6040516102d69190611075565b60405180910390f35b3480156102eb57600080fd5b5061030660048036038101906103019190610e29565b6108b8565b6040516103139190611001565b60405180910390f35b34801561032857600080fd5b506103316108f7565b60405161033e91906110e3565b60405180910390f35b34801561035357600080fd5b5061035c61091b565b60405161036991906110fe565b60405180910390f35b7f000000000000000000000000000000000000000000000000000000000000000073ffffffffffffffffffffffffffffffffffffffff163373ffffffffffffffffffffffffffffffffffffffff161461042457337f00000000000000000000000000000000000000000000000000000000000000006040517f1cf993f400000000000000000000000000000000000000000000000000000000815260040161041b92919061101c565b60405180910390fd5b61042e828261092c565b5050565b7f000000000000000000000000000000000000000000000000000000000000000034101561048c576040517f3038c00a00000000000000000000000000000000000000000000000000000000815260040160405180910390fd5b600060018111156104a05761049f611455565b5b60008054906101000a900460ff1660018111156104c0576104bf611455565b5b146104f7576040517f1425571c00000000000000000000000000000000000000000000000000000000815260040160405180910390fd5b6001339080600181540180825580915050600190039060005260206000200160009091909190916101000a81548173ffffffffffffffffffffffffffffffffffffffff021916908373ffffffffffffffffffffffffffffffffffffffff1602179055503373ffffffffffffffffffffffffffffffffffffffff167f0805e1d667bddb8a95f0f09880cf94f403fb596ce79928d9f29b74203ba284d460405160405180910390a2565b60025481565b600460009054906101000a900467ffffffffffffffff1681565b6000606060008060009054906101000a900460ff1660018111156105e6576105e5611455565b5b600060018111156105fa576105f9611455565b5b14905060007f00000000000000000000000000000000000000000000000000000000000000006002544261062e919061122e565b1190506000804711905060008060018054905011905082801561064e5750815b80156106575750835b80156106605750805b9550856040518060400160405280600381526020017f30783000000000000000000000000000000000000000000000000000000000008152509550955050505050915091565b600381565b7f000000000000000000000000000000000000000000000000000000000000000081565b60006106e9604051806020016040528060008152506105bf565b50905080610723576040517fbb8c839c00000000000000000000000000000000000000000000000000000000815260040160405180910390fd5b60016000806101000a81548160ff0219169083600181111561074857610747611455565b5b021790555060007f000000000000000000000000000000000000000000000000000000000000000073ffffffffffffffffffffffffffffffffffffffff16635d3b1d30600354600460009054906101000a900467ffffffffffffffff166003600460089054906101000a900463ffffffff1660016040518663ffffffff1660e01b81526004016107dc959493929190611090565b602060405180830381600087803b1580156107f657600080fd5b505af115801561080a573d6000803e3d6000fd5b505050506040513d601f19601f8201168201806040525081019061082e9190610e56565b9050807fde6349b018d6c03d837b67d9a198a6ba4842546f2295fe963fae141e5dbaef8160405160405180910390a250505050565b600181565b7f000000000000000000000000000000000000000000000000000000000000000081565b6004600c9054906101000a900473ffffffffffffffffffffffffffffffffffffffff1681565b60035481565b600181815481106108c857600080fd5b906000526020600020016000915054906101000a900473ffffffffffffffffffffffffffffffffffffffff1681565b7f000000000000000000000000000000000000000000000000000000000000000081565b60008054906101000a900460ff1681565b60006001805490508260008151811061094857610947611484565b5b602002602001015161095a91906113c6565b905060006001828154811061097257610971611484565b5b9060005260206000200160009054906101000a900473ffffffffffffffffffffffffffffffffffffffff169050600067ffffffffffffffff8111156109ba576109b96114b3565b5b6040519080825280602002602001820160405280156109e85781602001602082028036833780820191505090505b50600190805190602001906109fe929190610b5e565b5060008060006101000a81548160ff02191690836001811115610a2457610a23611455565b5b0217905550806004600c6101000a81548173ffffffffffffffffffffffffffffffffffffffff021916908373ffffffffffffffffffffffffffffffffffffffff1602179055504260028190555060008173ffffffffffffffffffffffffffffffffffffffff1647604051610a9790610fd1565b60006040518083038185875af1925050503d8060008114610ad4576040519150601f19603f3d011682016040523d82523d6000602084013e610ad9565b606091505b5050905080610b14576040517fba31c4f300000000000000000000000000000000000000000000000000000000815260040160405180910390fd5b8173ffffffffffffffffffffffffffffffffffffffff167f5b690ec4a06fe979403046eaeea5b3ce38524683c3001f662c8b5a829632f7df60405160405180910390a25050505050565b828054828255906000526020600020908101928215610bd7579160200282015b82811115610bd65782518260006101000a81548173ffffffffffffffffffffffffffffffffffffffff021916908373ffffffffffffffffffffffffffffffffffffffff16021790555091602001919060010190610b7e565b5b509050610be49190610be8565b5090565b5b80821115610c01576000816000905550600101610be9565b5090565b6000610c18610c13846111aa565b611185565b90508083825260208201905082856020860282011115610c3b57610c3a6114ec565b5b60005b85811015610c6b5781610c518882610d69565b845260208401935060208301925050600181019050610c3e565b5050509392505050565b6000610c88610c83846111d6565b611185565b905082815260208101848484011115610ca457610ca36114f1565b5b610caf848285611353565b509392505050565b600082601f830112610ccc57610ccb6114e7565b5b8135610cdc848260208601610c05565b91505092915050565b60008083601f840112610cfb57610cfa6114e7565b5b8235905067ffffffffffffffff811115610d1857610d176114e2565b5b602083019150836001820283011115610d3457610d336114ec565b5b9250929050565b600082601f830112610d5057610d4f6114e7565b5b8135610d60848260208601610c75565b91505092915050565b600081359050610d7881611528565b92915050565b600081519050610d8d81611528565b92915050565b60008060208385031215610daa57610da96114fb565b5b600083013567ffffffffffffffff811115610dc857610dc76114f6565b5b610dd485828601610ce5565b92509250509250929050565b600060208284031215610df657610df56114fb565b5b600082013567ffffffffffffffff811115610e1457610e136114f6565b5b610e2084828501610d3b565b91505092915050565b600060208284031215610e3f57610e3e6114fb565b5b6000610e4d84828501610d69565b91505092915050565b600060208284031215610e6c57610e6b6114fb565b5b6000610e7a84828501610d7e565b91505092915050565b60008060408385031215610e9a57610e996114fb565b5b6000610ea885828601610d69565b925050602083013567ffffffffffffffff811115610ec957610ec86114f6565b5b610ed585828601610cb7565b9150509250929050565b610ee881611274565b82525050565b610ef781611262565b82525050565b610f0681611286565b82525050565b610f1581611292565b82525050565b6000610f2682611207565b610f308185611212565b9350610f40818560208601611362565b610f4981611500565b840191505092915050565b610f5d8161130b565b82525050565b610f6c8161131d565b82525050565b6000610f7f600083611223565b9150610f8a82611511565b600082019050919050565b610f9e816112af565b82525050565b610fad816112dd565b82525050565b610fbc816112e7565b82525050565b610fcb816112f7565b82525050565b6000610fdc82610f72565b9150819050919050565b6000602082019050610ffb6000830184610eee565b92915050565b60006020820190506110166000830184610edf565b92915050565b60006040820190506110316000830185610eee565b61103e6020830184610eee565b9392505050565b600060408201905061105a6000830185610efd565b818103602083015261106c8184610f1b565b90509392505050565b600060208201905061108a6000830184610f0c565b92915050565b600060a0820190506110a56000830188610f0c565b6110b26020830187610fc2565b6110bf6040830186610f95565b6110cc6060830185610fb3565b6110d96080830184610fb3565b9695505050505050565b60006020820190506110f86000830184610f54565b92915050565b60006020820190506111136000830184610f63565b92915050565b600060208201905061112e6000830184610f95565b92915050565b60006020820190506111496000830184610fa4565b92915050565b60006020820190506111646000830184610fb3565b92915050565b600060208201905061117f6000830184610fc2565b92915050565b600061118f6111a0565b905061119b8282611395565b919050565b6000604051905090565b600067ffffffffffffffff8211156111c5576111c46114b3565b5b602082029050602081019050919050565b600067ffffffffffffffff8211156111f1576111f06114b3565b5b6111fa82611500565b9050602081019050919050565b600081519050919050565b600082825260208201905092915050565b600081905092915050565b6000611239826112dd565b9150611244836112dd565b925082821015611257576112566113f7565b5b828203905092915050565b600061126d826112bd565b9050919050565b600061127f826112bd565b9050919050565b60008115159050919050565b6000819050919050565b60008190506112aa82611514565b919050565b600061ffff82169050919050565b600073ffffffffffffffffffffffffffffffffffffffff82169050919050565b6000819050919050565b600063ffffffff82169050919050565b600067ffffffffffffffff82169050919050565b60006113168261132f565b9050919050565b60006113288261129c565b9050919050565b600061133a82611341565b9050919050565b600061134c826112bd565b9050919050565b82818337600083830152505050565b60005b83811015611380578082015181840152602081019050611365565b8381111561138f576000848401525b50505050565b61139e82611500565b810181811067ffffffffffffffff821117156113bd576113bc6114b3565b5b80604052505050565b60006113d1826112dd565b91506113dc836112dd565b9250826113ec576113eb611426565b5b828206905092915050565b7f4e487b7100000000000000000000000000000000000000000000000000000000600052601160045260246000fd5b7f4e487b7100000000000000000000000000000000000000000000000000000000600052601260045260246000fd5b7f4e487b7100000000000000000000000000000000000000000000000000000000600052602160045260246000fd5b7f4e487b7100000000000000000000000000000000000000000000000000000000600052603260045260246000fd5b7f4e487b7100000000000000000000000000000000000000000000000000000000600052604160045260246000fd5b600080fd5b600080fd5b600080fd5b600080fd5b600080fd5b600080fd5b6000601f19601f8301169050919050565b50565b6002811061152557611524611455565b5b50565b611531816112dd565b811461153c57600080fd5b5056fea264697066735822122080a456b3032a780bea8733eb5ee1238acf48033fe291bed7328ef48b9cf950f264736f6c63430008070033",
  "devdoc": {
    "kind": "dev",
    "methods": {},
    "version": 1
  },
  "userdoc": {
    "kind": "user",
    "methods": {},
    "version": 1
  },
  "storageLayout": {
    "storage": [
      {
        "astId": 166,
        "contract": "contracts/Raffle.sol:Raffle",
        "label": "s_raffleState",
        "offset": 0,
        "slot": "0",
        "type": "t_enum(RaffleState)163"
      },
      {
        "astId": 171,
        "contract": "contracts/Raffle.sol:Raffle",
        "label": "s_players",
        "offset": 0,
        "slot": "1",
        "type": "t_array(t_address_payable)dyn_storage"
      },
      {
        "astId": 175,
        "contract": "contracts/Raffle.sol:Raffle",
        "label": "s_lastTimeStamp",
        "offset": 0,
        "slot": "2",
        "type": "t_uint256"
      },
      {
        "astId": 180,
        "contract": "contracts/Raffle.sol:Raffle",
        "label": "i_gasLane",
        "offset": 0,
        "slot": "3",
        "type": "t_bytes32"
      },
      {
        "astId": 182,
        "contract": "contracts/Raffle.sol:Raffle",
        "label": "i_subscriptionId",
        "offset": 0,
        "slot": "4",
        "type": "t_uint64"
      },
      {
        "astId": 187,
        "contract": "contracts/Raffle.sol:Raffle",
        "label": "i_callBackgasLimit",
        "offset": 8,
        "slot": "4",
        "type": "t_uint32"
      },
      {
        "astId": 192,
        "contract": "contracts/Raffle.sol:Raffle",
        "label": "s_recentWinner",
        "offset": 12,
        "slot": "4",
        "type": "t_address"
      }
    ],
    "types": {
      "t_address": {
        "encoding": "inplace",
        "label": "address",
        "numberOfBytes": "20"
      },
      "t_address_payable": {
        "encoding": "inplace",
        "label": "address payable",
        "numberOfBytes": "20"
      },
      "t_array(t_address_payable)dyn_storage": {
        "base": "t_address_payable",
        "encoding": "dynamic_array",
        "label": "address payable[]",
        "numberOfBytes": "32"
      },
      "t_bytes32": {
        "encoding": "inplace",
        "label": "bytes32",
        "numberOfBytes": "32"
      },
      "t_enum(RaffleState)163": {
        "encoding": "inplace",
        "label": "enum Raffle.RaffleState",
        "numberOfBytes": "1"
      },
      "t_uint256": {
        "encoding": "inplace",
        "label": "uint256",
        "numberOfBytes": "32"
      },
      "t_uint32": {
        "encoding": "inplace",
        "label": "uint32",
        "numberOfBytes": "4"
      },
      "t_uint64": {
        "encoding": "inplace",
        "label": "uint64",
        "numberOfBytes": "8"
      }
    }
  }
}